{
  "_format": "hh-sol-artifact-1",
  "contractName": "SocialMedia",
  "sourceName": "contracts/SocialMedia.sol",
  "abi": [
    {
      "anonymous": false,
      "inputs": [
        {
          "indexed": false,
          "internalType": "uint256",
          "name": "postId",
          "type": "uint256"
        },
        {
          "indexed": false,
          "internalType": "string",
          "name": "ipfsHash",
          "type": "string"
        },
        {
          "indexed": false,
          "internalType": "address",
          "name": "author",
          "type": "address"
        },
        {
          "indexed": false,
          "internalType": "uint256",
          "name": "timestamp",
          "type": "uint256"
        }
      ],
      "name": "PostCreated",
      "type": "event"
    },
    {
      "inputs": [
        {
          "internalType": "string",
          "name": "_ipfsHash",
          "type": "string"
        }
      ],
      "name": "createPost",
      "outputs": [],
      "stateMutability": "nonpayable",
      "type": "function"
    },
    {
      "inputs": [],
      "name": "getAllPosts",
      "outputs": [
        {
          "components": [
            {
              "internalType": "string",
              "name": "ipfsHash",
              "type": "string"
            },
            {
              "internalType": "address",
              "name": "author",
              "type": "address"
            },
            {
              "internalType": "uint256",
              "name": "timestamp",
              "type": "uint256"
            }
          ],
          "internalType": "struct SocialMedia.Post[]",
          "name": "",
          "type": "tuple[]"
        }
      ],
      "stateMutability": "view",
      "type": "function"
    },
    {
      "inputs": [],
      "name": "postCount",
      "outputs": [
        {
          "internalType": "uint256",
          "name": "",
          "type": "uint256"
        }
      ],
      "stateMutability": "view",
      "type": "function"
    },
    {
      "inputs": [
        {
          "internalType": "uint256",
          "name": "",
          "type": "uint256"
        }
      ],
      "name": "posts",
      "outputs": [
        {
          "internalType": "string",
          "name": "ipfsHash",
          "type": "string"
        },
        {
          "internalType": "address",
          "name": "author",
          "type": "address"
        },
        {
          "internalType": "uint256",
          "name": "timestamp",
          "type": "uint256"
        }
      ],
      "stateMutability": "view",
      "type": "function"
    }
  ],
  "bytecode": "0x608060405234801561001057600080fd5b50610762806100206000396000f3fe608060405234801561001057600080fd5b506004361061004c5760003560e01c80630b1e7f831461005157806317906c2e1461007c5780633056110014610093578063c7303c61146100a8575b600080fd5b61006461005f3660046104a3565b6100bd565b60405161007393929190610509565b60405180910390f35b61008560015481565b604051908152602001610073565b61009b610171565b6040516100739190610537565b6100bb6100b63660046105c1565b6102fe565b005b6000602081905290815260409020805481906100d890610633565b80601f016020809104026020016040519081016040528092919081815260200182805461010490610633565b80156101515780601f1061012657610100808354040283529160200191610151565b820191906000526020600020905b81548152906001019060200180831161013457829003601f168201915b50505050600183015460029093015491926001600160a01b031691905083565b6060600060015467ffffffffffffffff81111561019057610190610668565b6040519080825280602002602001820160405280156101ee57816020015b6101db60405180606001604052806060815260200160006001600160a01b03168152602001600081525090565b8152602001906001900390816101ae5790505b50905060005b6001548110156102f8576000818152602081905260409081902081516060810190925280548290829061022690610633565b80601f016020809104026020016040519081016040528092919081815260200182805461025290610633565b801561029f5780601f106102745761010080835404028352916020019161029f565b820191906000526020600020905b81548152906001019060200180831161028257829003601f168201915b505050918352505060018201546001600160a01b0316602082015260029091015460409091015282518390839081106102da576102da61067e565b602002602001018190525080806102f0906106aa565b9150506101f4565b50919050565b604051806060016040528083838080601f0160208091040260200160405190810160405280939291908181526020018383808284376000920182905250938552505033602080850191909152426040948501526001548352828152929091208351805191936103729350849291019061040a565b506020820151600182810180546001600160a01b0319166001600160a01b039093169290921790915560409092015160029091015580549060006103b5836106aa565b91905055507fb4af4b9562ae3030a4905c2c59e4d1a62b4e502925d1c337efa53dca6127d547600180546103e991906106c5565b838333426040516103fe9594939291906106dc565b60405180910390a15050565b82805461041690610633565b90600052602060002090601f016020900481019282610438576000855561047e565b82601f1061045157805160ff191683800117855561047e565b8280016001018555821561047e579182015b8281111561047e578251825591602001919060010190610463565b5061048a92915061048e565b5090565b5b8082111561048a576000815560010161048f565b6000602082840312156104b557600080fd5b5035919050565b6000815180845260005b818110156104e2576020818501810151868301820152016104c6565b818111156104f4576000602083870101525b50601f01601f19169290920160200192915050565b60608152600061051c60608301866104bc565b6001600160a01b039490941660208301525060400152919050565b60006020808301818452808551808352604092508286019150828160051b87010184880160005b838110156105b357603f19898403018552815160608151818652610584828701826104bc565b838b01516001600160a01b0316878c01529289015195890195909552509487019492509086019060010161055e565b509098975050505050505050565b600080602083850312156105d457600080fd5b823567ffffffffffffffff808211156105ec57600080fd5b818501915085601f83011261060057600080fd5b81358181111561060f57600080fd5b86602082850101111561062157600080fd5b60209290920196919550909350505050565b600181811c9082168061064757607f821691505b602082108114156102f857634e487b7160e01b600052602260045260246000fd5b634e487b7160e01b600052604160045260246000fd5b634e487b7160e01b600052603260045260246000fd5b634e487b7160e01b600052601160045260246000fd5b60006000198214156106be576106be610694565b5060010190565b6000828210156106d7576106d7610694565b500390565b85815260806020820152836080820152838560a0830137600060a08583018101919091526001600160a01b039390931660408201526060810191909152601f909201601f1916909101019291505056fea2646970667358221220c813017e50885a3581d3d8b7328503f4448ef5848ac4f8eafc68f8016a722eda64736f6c63430008090033",
  "linkReferences": {},
  "deployedLinkReferences": {}
}