{
	"_format": "hh-sol-artifact-1",
	"contractName": "SocialMedia",
	"sourceName": "contracts/SocialMedia.sol",
	"abi": [
		{
			"inputs": [
				{
					"internalType": "string",
					"name": "_ipfsHash",
					"type": "string"
				}
			],
			"name": "createPost",
			"outputs": [],
			"stateMutability": "nonpayable",
			"type": "function"
		},
		{
			"anonymous": false,
			"inputs": [
				{
					"indexed": false,
					"internalType": "uint256",
					"name": "postId",
					"type": "uint256"
				},
				{
					"indexed": false,
					"internalType": "string",
					"name": "ipfsHash",
					"type": "string"
				},
				{
					"indexed": false,
					"internalType": "address",
					"name": "author",
					"type": "address"
				},
				{
					"indexed": false,
					"internalType": "uint256",
					"name": "timestamp",
					"type": "uint256"
				}
			],
			"name": "PostCreated",
			"type": "event"
		},
		{
			"inputs": [],
			"name": "getAllPosts",
			"outputs": [
				{
					"components": [
						{
							"internalType": "string",
							"name": "ipfsHash",
							"type": "string"
						},
						{
							"internalType": "address",
							"name": "author",
							"type": "address"
						},
						{
							"internalType": "uint256",
							"name": "timestamp",
							"type": "uint256"
						}
					],
					"internalType": "struct SocialMedia.Post[]",
					"name": "",
					"type": "tuple[]"
				}
			],
			"stateMutability": "view",
			"type": "function"
		},
		{
			"inputs": [],
			"name": "postCount",
			"outputs": [
				{
					"internalType": "uint256",
					"name": "",
					"type": "uint256"
				}
			],
			"stateMutability": "view",
			"type": "function"
		},
		{
			"inputs": [
				{
					"internalType": "uint256",
					"name": "",
					"type": "uint256"
				}
			],
			"name": "posts",
			"outputs": [
				{
					"internalType": "string",
					"name": "ipfsHash",
					"type": "string"
				},
				{
					"internalType": "address",
					"name": "author",
					"type": "address"
				},
				{
					"internalType": "uint256",
					"name": "timestamp",
					"type": "uint256"
				}
			],
			"stateMutability": "view",
			"type": "function"
		}
	],
	"bytecode": "0x608060405234801561001057600080fd5b5061074f806100206000396000f3fe608060405234801561001057600080fd5b506004361061004c5760003560e01c80630b1e7f831461005157806317906c2e1461007c5780633056110014610093578063c7303c61146100a8575b600080fd5b61006461005f36600461046c565b6100bd565b604051610073939291906104d2565b60405180910390f35b61008560015481565b604051908152602001610073565b61009b610171565b6040516100739190610500565b6100bb6100b63660046105a0565b6102fe565b005b6000602081905290815260409020805481906100d890610651565b80601f016020809104026020016040519081016040528092919081815260200182805461010490610651565b80156101515780601f1061012657610100808354040283529160200191610151565b820191906000526020600020905b81548152906001019060200180831161013457829003601f168201915b50505050600183015460029093015491926001600160a01b031691905083565b6060600060015467ffffffffffffffff8111156101905761019061058a565b6040519080825280602002602001820160405280156101ee57816020015b6101db60405180606001604052806060815260200160006001600160a01b03168152602001600081525090565b8152602001906001900390816101ae5790505b50905060005b6001548110156102f8576000818152602081905260409081902081516060810190925280548290829061022690610651565b80601f016020809104026020016040519081016040528092919081815260200182805461025290610651565b801561029f5780601f106102745761010080835404028352916020019161029f565b820191906000526020600020905b81548152906001019060200180831161028257829003601f168201915b505050918352505060018201546001600160a01b0316602082015260029091015460409091015282518390839081106102da576102da610686565b602002602001018190525080806102f0906106b2565b9150506101f4565b50919050565b60408051606081018252828152336020808301919091524282840152600154600090815280825292909220815180519293919261033e92849201906103d3565b506020820151600182810180546001600160a01b0319166001600160a01b03909316929092179091556040909201516002909101558054906000610381836106b2565b91905055507fb4af4b9562ae3030a4905c2c59e4d1a62b4e502925d1c337efa53dca6127d547600180546103b591906106cd565b8233426040516103c894939291906106e4565b60405180910390a150565b8280546103df90610651565b90600052602060002090601f0160209004810192826104015760008555610447565b82601f1061041a57805160ff1916838001178555610447565b82800160010185558215610447579182015b8281111561044757825182559160200191906001019061042c565b50610453929150610457565b5090565b5b808211156104535760008155600101610458565b60006020828403121561047e57600080fd5b5035919050565b6000815180845260005b818110156104ab5760208185018101518683018201520161048f565b818111156104bd576000602083870101525b50601f01601f19169290920160200192915050565b6060815260006104e56060830186610485565b6001600160a01b039490941660208301525060400152919050565b60006020808301818452808551808352604092508286019150828160051b87010184880160005b8381101561057c57603f1989840301855281516060815181865261054d82870182610485565b838b01516001600160a01b0316878c015292890151958901959095525094870194925090860190600101610527565b509098975050505050505050565b634e487b7160e01b600052604160045260246000fd5b6000602082840312156105b257600080fd5b813567ffffffffffffffff808211156105ca57600080fd5b818401915084601f8301126105de57600080fd5b8135818111156105f0576105f061058a565b604051601f8201601f19908116603f011681019083821181831017156106185761061861058a565b8160405282815287602084870101111561063157600080fd5b826020860160208301376000928101602001929092525095945050505050565b600181811c9082168061066557607f821691505b602082108114156102f857634e487b7160e01b600052602260045260246000fd5b634e487b7160e01b600052603260045260246000fd5b634e487b7160e01b600052601160045260246000fd5b60006000198214156106c6576106c661069c565b5060010190565b6000828210156106df576106df61069c565b500390565b8481526080602082015260006106fd6080830186610485565b6001600160a01b0394909416604083015250606001529291505056fea2646970667358221220181af28044543bc6d1f940784d5289427ed6c2ad80e27d983b2d4dabb2734fa264736f6c63430008090033",
	"linkReferences": {},
	"deployedLinkReferences": {}
}